:020000040800F2
:1000000050250020CD010008190A0008AF0900089A
:10001000150A0008F5040008B712000800000000E7
:100020000000000000000000000000000D0F0008AC
:100030008507000800000000BF0D0008211000081F
:10004000E7010008E7010008E7010008E7010008F0
:10005000E7010008E7010008E7010008E7010008E0
:10006000E7010008E701000889070008E701000828
:10007000E7010008E7010008E7010008E7010008C0
:10008000E7010008E7010008E7010008E7010008B0
:10009000E7010008E7010008E7010008050800087B
:1000A000E7010008E7010008E7010008E701000890
:1000B000E7010008E7010008E7010008E701000880
:1000C000E7010008E7010008E7010008E701000870
:1000D000E7010008D5100008E70100085D110008DD
:1000E000E7010008E7010008E7010008E701000850
:1000F000E7010008E7010008E7010008E701000840
:10010000E7010008E701000885100008E701000882
:10011000E7010008E7010008E7010008E70100081F
:10012000E7010008E7010008E7010008E70100080F
:1001300000F002F800F03AF80AA090E8000C8244BF
:100140008344AAF10107DA4501D100F02FF8AFF29C
:10015000090EBAE80F0013F0010F18BFFB1A43F0A5
:10016000010318472C2800004C280000103A24BF37
:1001700078C878C1FAD8520724BF30C830C144BF0C
:1001800004680C607047000000230024002500264E
:10019000103A28BF78C1FBD8520728BF30C148BFEA
:1001A0000B6070471FB51FBD10B510BD00F033F8D0
:1001B0001146FFF7F7FF01F047F900F051F803B4DB
:1001C000FFF7F2FF03BC01F0CFF8000009488047B9
:1001D00009480047FEE7FEE7FEE7FEE7FEE7FEE729
:1001E000FEE7FEE7FEE7FEE704480549054A064B41
:1001F000704700002510000831010008501F002042
:1002000050250020502100205021002070477047C9
:10021000704770477047754600F02CF8AE460500F1
:100220006946534620F00700854618B020B5FFF711
:10023000DBFFBDE820404FF000064FF000074FF015
:1002400000084FF0000B21F00701AC46ACE8C009F4
:10025000ACE8C009ACE8C009ACE8C0098D467047FD
:1002600010B50446AFF300802046BDE81040FFF70C
:10027000A6BF000000487047F01E002021B1826830
:1002800042F00102826003E0826822F00102826093
:100290007047000010B504461248844208D101217D
:1002A000401500F0B9FD0021601500F0B5FD17E024
:1002B0000D48844208D10121001500F0ADFD002158
:1002C000201500F0A9FD0BE00848844208D1012167
:1002D000C80300F0A1FD00214FF4004000F09CFD98
:1002E00010BD00000024014000280140003C0140F6
:1002F000014600208A6802F004020AB1012000E0F1
:10030000002070470146C86C80B27047024600204A
:1003100013680B400BB1012000E00020704701463C
:1003200000208A6802F008020AB1012000E00020E3
:100330007047000030B502460020002350680F4C83
:1003400020400D790C6844EA0524204350609068F1
:100350000B4C2040D1E902542C434D7944EA45042A
:1003600020439060D06A20F470000C7C641EE4B2DC
:10037000234340EA0350D06230BD0000FFFEF0FF8F
:10038000FDF7F1FFF0B504460D4600200021092DD0
:1003900011DDE068A5F10A0606EB4607072606FA16
:1003A00007F18843A5F10A0606EB460603FA06F1B3
:1003B0000843E0600CE0206905EB4507072606FAD4
:1003C00007F1884305EB450603FA06F1084320616F
:1003D000072A0FDA606B561E06EB86071F2606FA01
:1003E00007F18843561E06EB860605FA06F1084318
:1003F000606322E00D2A0FDA206BD61F06EB86071A
:100400001F2606FA07F18843D61F06EB860605FA73
:1004100006F10843206310E0E06AA2F10D0606EB46
:1004200086071F2606FA07F18843A2F10D0606EBA0
:10043000860605FA06F10843E062F0BD816841F0E6
:1004400008018160704721B1826842F4A002826095
:1004500003E0826822F4A00282607047816841F064
:10046000040181607047000000B587B001214FF49E
:10047000017000F0C1FC4FF4004000F0A1FC02202C
:10048000ADF8040000208DF8070001A9174800F01E
:10049000CDF91748FFF7FEFE002002908DF80C0002
:1004A0008DF80D004FF4602004900020059001208D
:1004B0008DF8180002A90E48FFF73CFF01210C48F7
:1004C000FFF7DCFE0A48FFF7B9FF00BF0848FFF757
:1004D00026FF0028FAD10648FFF7C0FF00BF0448F6
:1004E000FFF706FF0028FAD107B000BD0008014061
:1004F0000024014000BFFEE710B500241548006845
:1005000020F00F00134908600846006840F008001A
:10051000086004E0601CC4B2012000F06FFF0E48C8
:10052000006808B1C82CF5DBC82C01DB012010BD28
:10053000002404E0601CC4B2012000F05FFF064804
:10054000006808B9F02CF5DBF02C01DB0120EEE7A8
:100550000020ECE700080140000121422DE9F84F9E
:1005600000F0CAF800F0A6F8FFF7C6FFCC2000F0B4
:10057000CFF8BE2000F0CCF800F08AF8834600F0F7
:1005800087F80446072C08DDE043C4B26FEA0B008D
:1005900000F0FF0B4FF0000A01E04FF0010AA14606
:1005A0004FEA09200FFA80F909EB0B000FFA80F9E6
:1005B000484601F069FC009001F0B8FB07460022B4
:1005C000084B01F0CBF9054601F098F90FFA80F9D4
:1005D000BAF1000F02D04846BDE8F88FC9F100001B
:1005E00000B2F9E70000E43F08B50121042000F063
:1005F00003FC0120ADF8000010208DF8030003205B
:100600008DF802006946064800F010F901210448FF
:1006100000F099F900F04EF8FFF76EFF08BD0000FA
:100620000008014010B51748006820F00F00154978
:1006300008600846006840F0030008600020124986
:100640000860022000F0DAFE01201049C1F88001A4
:100650000C48006820F00F000A490860084600684E
:1006600040F0080008600C2000F0C8FE0648803802
:10067000006808B1012400E00024322000F0BEFE32
:10068000204610BD000801408001214200002142A7
:1006900070B50026012508E0FFF7C4FF0446E0011D
:1006A00040EA6600C6B2681CC5B2082DF4DD3046CB
:1006B00070BD000010B50D48006820F00F000B4918
:1006C00008600846006840F0030008600020084900
:1006D000086040F2EE2000F091FE01200549C1F8CB
:1006E00080010F2000F08AFE10BD000000080140CC
:1006F000800121420000214210B5FFF7DBFFFFF728
:10070000FBFECC2000F004F8442000F001F810BDFE
:1007100070B504461848006820F00F0016490860BC
:100720000846006840F003000860012520E004F05E
:10073000010664106EB1002010490860022000F02C
:100740005DFE01200E49C1F880013C2000F056FEFC
:100750000CE00020094908603C2000F04FFE012019
:100760000749C1F88001022000F048FE681CC5B2AC
:10077000082DDCDD70BD0000000801408001214231
:10078000000021427047000010B51A480068132885
:1007900026DD19480068462822DA16480068032139
:1007A00090FBF1F201FB1200D0B9002400E0641CC0
:1007B0005F2CFCDD63240CE0104800680E490968DA
:1007C00001EBC10202EB01110D4A02EB8101085558
:1007D000641E002CF0DA08480068401C06490860D6
:1007E00004480068401C03490860102000F018F815
:1007F00010BD00001C0000202000002014812242B7
:100800005000002010B5002003490860034908602B
:10081000402000F005F810BD200000201C00002042
:100820000149086070470000140401402DE9F041BF
:10083000024600250026002000230024002791F80E
:1008400003C00CF00F0591F803C00CF0100CBCF1C4
:10085000000F03D091F802C04CEA050591F800C0E2
:10086000BCF1000F31D0146800202BE04FF0010CD8
:100870000CFA00F3B1F800C00CEA03069E4220D146
:1008800083004FF00F0C0CFA03F7BC4305FA03FC8E
:100890004CEA040491F803C0BCF1280F06D14FF0D4
:1008A000010C0CFA00FCC2F814C00AE091F803C075
:1008B000BCF1480F05D14FF0010C0CFA00FCC2F856
:1008C00010C0401C0828D1D31460B1F800C0BCF19E
:1008D000FF0F34DD546800202EE000F1080C4FF0CB
:1008E000010808FA0CF3B1F800C00CEA03069E42B6
:1008F00021D183004FF00F0C0CFA03F7BC4305FA2B
:1009000003FC4CEA040491F803C0BCF1280F05D1A4
:1009100000F1080C08FA0CF8C2F8148091F803C032
:10092000BCF1480F07D100F1080C4FF0010808FA9C
:100930000CF8C2F81080401C0828CED35460BDE8E3
:10094000F0814161704701617047000010B50446B5
:100950000723012221460948FFF714FD012107481A
:10096000FFF771FD00BF02210448FFF7CFFC00280C
:10097000F9D00248FFF7C6FC10BD0000002401407A
:100980002DE9F04107460C460025002608E03846D0
:10099000FFF7DCFF0544052000F00AFD701CC6B21D
:1009A000A642F4DBB5FBF4F080B2BDE8F08100BFF5
:1009B000FEE7000010B580210748FFF7C4FF402183
:1009C0000548FFF7C0FF40210348FFF7BAFF802129
:1009D0000148FFF7B6FF10BD000C014010B58021A3
:1009E0000548FFF7B0FF40210348FFF7AAFF402169
:1009F0000148FFF7A8FF10BD000C014010B5802191
:100A00000348FFF7A0FF80210148FFF79AFF10BDC0
:100A1000000C014000BFFEE77047000070B50021E8
:100A200000230F22C47804B3154C246804F4E06456
:100A3000C4F5E064210AC1F10403CA40447804FA11
:100A400003F184781440214309010E4C0678A15526
:100A5000047804F01F050124AC4005786D11AD0049
:100A600005F1E025C5F8004109E0047804F01F0510
:100A70000124AC40044D0678761145F8264070BD3F
:100A80000CED00E000E400E080E100E002490143F9
:100A9000024A1160704700000000FA050CED00E00A
:100AA00070B5002418E004F1B000002100F07BF9DB
:100AB0000021084600F077F90021102000F073F9BA
:100AC000002505E00121002000F06DF9681CC5B289
:100AD000802DF7DB601CC4B2082CE4DB70BD000085
:100AE00008B50121082000F087F98020ADF800004A
:100AF00010208DF8030003208DF802006946454858
:100B0000FFF794FE80214348FFF71DFF4020ADF81A
:100B1000000010208DF8030003208DF802006946C4
:100B20003C48FFF783FE40213A48FFF70CFFC820FE
:100B300000F03EFC0021AE2000F035F9002108460F
:100B400000F031F90021102000F02DF900214020A3
:100B500000F029F90021B02000F025F900218120C2
:100B600000F021F90021FF2000F01DF90021A12053
:100B700000F019F90021A62000F015F90021A820A5
:100B800000F011F900213F2000F00DF90021C820EC
:100B900000F009F90021D32000F005F900210846F2
:100BA00000F001F90021D52000F0FDF8002180209F
:100BB00000F0F9F80021D82000F0F5F80021052018
:100BC00000F0F1F80021D92000F0EDF80021F1202B
:100BD00000F0E9F80021DA2000F0E5F80021122009
:100BE00000F0E1F80021DB2000F0DDF800213020EA
:100BF00000F0D9F800218D2000F0D5F80021142054
:100C000000F0D1F80021AF2000F0CDF8FFF748FF49
:100C100008BD0000000C014070B504460D4605F10A
:100C2000B000002100F0BFF8102141EA14100021AB
:100C300000F0B9F804F00F00002100F0B4F870BD26
:100C40002DE9F04707460E469046994600250024B8
:100C5000A8F12000C5B27F2F02DD0027B01CC6B26C
:100C6000B9F1100F24D131463846FFF7D5FF0024E3
:100C700008E004EB0511194A505C012100F093F8DB
:100C8000601CC4B2082CF4DB701CC1B23846FFF7FC
:100C9000C3FF002409E004EB051108310F4A505C42
:100CA000012100F080F8601CC4B2082CF3DB12E0D4
:100CB00031463846FFF7B0FF00240AE005EB450156
:100CC000074A02EB4101085D012100F06CF8601C4D
:100CD000C4B2062CF2DBBDE8F08700009E230008BA
:100CE000762100082DE9FF5F074691461E460E9DBE
:100CF0004FF0000A002435E0301B401EC1B20A202C
:100D000000F08CFCB9FBF0F00A21B0FBF1F201FB22
:100D10001208BAF1000F14D1701EA04211DDB8F113
:100D2000000F0CD1AB4605EBDB71491001FB0471E0
:100D3000C8B22B4620220199FFF782FF10E04FF046
:100D4000010AAB4605EBDB71491001FB0471C8B227
:100D500008F13001CAB22B460199FFF771FF00BFBD
:100D6000601CC4B2B442C7DBBDE8FF9F2DE9F0416F
:100D700004460F461546984600260FE0AA5D4346F6
:100D800039462046FFF75CFF04F10800C4B2782C16
:100D900002DD0024B81CC7B2701CC6B2A85D0028D2
:100DA000ECD1BDE8F08170B504460D461DB1E0B24E
:100DB00000F0C4FA02E0E0B200F0AAFA70BD704799
:100DC00001460020034A506820F440400843506028
:100DD000704700000010024029B1064AD269024360
:100DE000044BDA6104E0034AD2698243014BDA61C1
:100DF000704700000010024029B1064A9269024380
:100E0000044B9A6104E0034A92698243014B9A6160
:100E1000704700000010024029B1064AD268024320
:100E2000044BDA6004E0034AD2688243014BDA6083
:100E3000704700000010024030B50021002200245D
:100E400000232D4D6D6805F00C0121B1042905D05A
:100E5000082923D105E0294D056022E0274D0560D2
:100E60001FE0254D6D6805F47012234D6D6805F483
:100E70008034022505EB92421CB9214D5543056093
:100E80000BE01D4D6D6805F400351DB11C4D55433B
:100E9000056002E0194D5543056002E0174D0560FD
:100EA00000BF00BF144D6D6805F0F0010909154D34
:100EB0006B5C0568DD4045600F4D6D6805F4E061D1
:100EC000090A104D6B5C4568DD4085600A4D6D6810
:100ED00005F46051C90A0B4D6B5C4568DD40C56087
:100EE000054D6D6805F44041890B074D6B5CC56885
:100EF000B5FBF3F5056130BD0010024000127A0029
:100F000000093D003C0000204C000020704710B557
:100F100000F002F810BD00000CB500200190009018
:100F20003348006840F480303149086000BF3048E1
:100F3000006800F4003000900198401C0190009877
:100F400018B90198B0F5A06FF1D12948006800F4F4
:100F5000003010B10120009001E0002000900098C6
:100F6000012843D12348006840F01000214908605F
:100F70000846006820F0030008600846006840F05A
:100F8000020008601A4840681949486008464068ED
:100F900048600846406840F4806048600846406801
:100FA00020F47C1048600846406840F4E81048602F
:100FB0000846006840F08070086000BF0C48006878
:100FC00000F000700028F9D00948406820F00300C4
:100FD000074948600846406840F00200486000BF8A
:100FE0000348406800F00C000828F9D10CBD00004F
:100FF0000010024000200240042808D14FF0E021F8
:10100000096941F004014FF0E022116107E04FF05F
:10101000E021096921F004014FF0E02211617047DD
:101020007047000010B51348006840F001001149F6
:10103000086008464068104908400E494860084664
:1010400000680E4908400B4908600846006820F413
:10105000802008600846406820F4FE0048604FF495
:101060001F008860FFF753FF4FF0006004490860DD
:1010700010BD0000001002400000FFF8FFFFF6FE68
:1010800008ED00E010B50121064800F012F840B16B
:1010900005480078401C044908700121014800F00F
:1010A00005F810BD000C004018000020CA43028261
:1010B000704730B50246002000230024158A05EA57
:1010C0000103958905EA010413B10CB1012000E088
:1010D000002030BD10B540F225511A4800F04BF801
:1010E00068B3184800F0DEF81749184A127821F85A
:1010F00012001648007820B908460088FD2800D064
:1011000010BD12480078401C10490870084600784D
:10111000042814DD0C4800880D4908800A4880889E
:101120000C49088008484088097840EA01200949AC
:10113000088000200549087001200749087000BF99
:10114000DEE70000003801403200002031000020BE
:10115000380000203A00002030000020704721B104
:10116000828942F40052828104E082894DF6FF7345
:101170001A408281704770B5024600240023002582
:10118000002040F66A16B14200D100BFC1F34215FB
:1011900001F01F03012606FA03F3012D02D19689FF
:1011A000334006E0022D02D1168A334001E0968AD0
:1011B00033400C12012606FA04F41688344013B1A9
:1011C0000CB1012000E0002070BD00002DE9F047C7
:1011D00086B005460E460024A24600BFA146002761
:1011E000B08900B100BF2F462C8A4CF6FF70044036
:1011F000F08804432C82AC894EF6F3100440B0888A
:1012000031890843718908430443AC81AC8A4FF6A5
:10121000FF400440B0890443AC8201A8FFF70CFEF4
:101220001F48874202D1DDF810A001E0DDF80CA0D4
:10123000A88900F4004040B10AEBCA0000EB0A1094
:1012400031684900B0FBF1F807E00AEBCA0000EB97
:101250000A1031688900B0FBF1F86420B8FBF0F0A7
:1012600004012009642101FB1089A88900F40040D1
:1012700040B1322000EBC900B0FBF1F000F00700F4
:10128000044308E0322000EB09106421B0FBF1F0C8
:1012900000F00F0004432C8106B0BDE8F087000089
:1012A0000038014001468888C0F308007047C1F348
:1012B00008028280704700BFFEE700002DE9F04180
:1012C00005462C4680211148FFF73BFB002619E01C
:1012D000274607F08007802F04D140210B48FFF7F5
:1012E00032FB03E040210948FFF72BFB6006040EA8
:1012F00080210648FFF727FB80210448FFF721FBE8
:10130000701CC6B2082EE3DBBDE8F081000C014082
:1013100010B50446FFF74EFB7820FFF7CFFFFFF72D
:101320006DFB0020FFF7CAFFFFF768FB2046FFF7C1
:10133000C5FFFFF763FBFFF751FB10BD10B5044677
:10134000FFF738FB7820FFF7B9FFFFF757FB402086
:10135000FFF7B4FFFFF752FB2046FFF7AFFFFFF7A1
:101360004DFBFFF73BFB10BD00BF704710B56FF0A2
:101370000400FFF741FE0A4800680A49B0FBF1F09B
:10138000094908700846007800EB4001C1EBC01025
:101390004FF6FF7101EAC0000449088010BD00004B
:1013A0000000002000127A00240000202600002007
:1013B0000146114A12884A434FF0E0235A61002245
:1013C0009A611A46126942F001021A6100BF4FF099
:1013D000E022106900F001021AB100F48032002A04
:1013E000F5D04FF0E022126922F001024FF0E02325
:1013F0001A6100229A617047260000200146114AB6
:1014000012784A434FF0E0235A6100229A611A464B
:10141000126942F001021A6100BF4FF0E022106928
:1014200000F001021AB100F48032002AF5D04FF02A
:10143000E022126922F001024FF0E0231A6100223B
:101440009A617047240000201FB54FF0000B4FF445
:10145000A060FFF71BFBFFF789FF4FF4165000F069
:1014600029F94FF4165000F0E5F8FFF739FBFEF7C5
:10147000FBFFFFF7B9F8B4E00A210120FFF780FA7B
:101480008146484600F018FD019000F04FFC0746E9
:10149000544A554B00F062FA544A554BCDE90201CB
:1014A00000F084F9054600F04FF982460BF1010087
:1014B00000F0FF0BFD214F48FFF7F9FEFD214D48DD
:1014C000FFF7F5FEFD214B48FFF7F1FE14209BFBD3
:1014D000F0F100FB11B000287DD183464648018819
:1014E0004648FFF7E4FE102002230090424802889D
:1014F00000213020FFF7F6FB504600F0A5FC1FFA54
:1015000080F9102002234A46194600903020FFF748
:10151000E9FB10232E2202213420FFF791FB4846DD
:1015200000F0CAFC0546514600F0A6FD824634494B
:10153000504600F0D5FC8246504600F085FC05463A
:10154000102003232A46022100903620FFF7CAFB11
:10155000FFF704F80446002C08DA10232D2204219A
:101560002E20FFF76DFB604204B205E0102320221D
:1015700004212E20FFF764FB10232E2204213420A7
:10158000FFF75EFB0A2094FBF0F5102002232A46A9
:10159000042100903020FFF7A5FB0A2094FBF0F116
:1015A00000FB1145102001232A460421009036201B
:1015B000FFF798FB102313A200210846FFF7D6FB84
:1015C000102312A202210020FFF7D0FB102311A24A
:1015D0000421002000E001E0FFF7C8FB0520FFF731
:1015E000E7FE49E707CE1951DADB17C0E17A14AEFE
:1015F00047413640003801403A0000200048004092
:1016000000007A445444533A200000005048203AE5
:101610002000000054454D3A2000000010B502465D
:10162000012000E050430B1EA1F10104E1B2F9D109
:1016300010BD000010B586B0044601210820FFF758
:10164000DBFB01218804FFF7C7FB4FF48060ADF896
:10165000140003208DF8160018208DF8170005A936
:101660001248FFF7E3F84FF40060ADF814000420CF
:101670008DF8170005A90D48FFF7D8F80194002050
:10168000ADF80800ADF80A00ADF80C00ADF8100098
:101690000C20ADF80E0001A90548FFF797FD0121C8
:1016A0000348FFF75CFD06B010BD0000000C0140D0
:1016B0000048004010B586B00446012144F2040001
:1016C000FFF79AFB4FF40070ADF8140003208DF87B
:1016D000160018208DF8170005A91948FFF7A6F87D
:1016E0004FF48060ADF8140004208DF8170005A9B0
:1016F0001348FFF79BF825208DF8000000208DF897
:10170000010001208DF802008DF803006846FFF704
:1017100085F901940020ADF80800ADF80A00ADF895
:101720000C00ADF810000C20ADF80E0001A9054822
:10173000FFF74CFD01210348FFF711FD06B010BD76
:10174000000801400038014021F00042A2F160523F
:10175000B2F5801F01F0004328BFD2F17F6C0BD996
:101760005FEA001C43EAC20242EB507018BF7047A8
:1017700028BF20F001007047B2F5801FBCBF18469B
:1017800070474FEA410C1CF5001F02D2084600F0DA
:101790006EBC70B500F08CF900000089FFF7F6BF51
:1017A0004FF00040A0F580007047000010B591EAAE
:1017B000030F48BF83F0004300F1D681841A71EB18
:1017C000030C05D2121943EB0C03001B61EB0C0157
:1017D000DFF824E14FEA1154A4EB135C1EEA430F37
:1017E00018BF9EEA445F73D023EA0E03DCF1200E9B
:1017F00021EA045143F4801332D322FA0CFE10EB99
:101800000E0023FA0CFE41EB0E01CCF1200E03FA80
:101810000EFE10EB0E0051F10001B1F5801FCCF16E
:10182000200E32D201EB045112FA0EF2BDE8104044
:1018300058BF7047401C38BF5FEA420218BF70476C
:10184000002814BF20F0010041F100014FEA4103DC
:1018500013F5001F38BF7047A1F1C04100F076B901
:10186000012A43EB0302ACF1200CDCF11F0E32BF66
:101870004FF0000E23FA0CF310EB030041EB045180
:10188000B4EB115FD0D0A1EB045101F580114908F0
:101890005FEA300001EB04510ED350F1000038BF75
:1018A00012FA0EFE08D1BDE81040C9E7401C38BF4F
:1018B0005FEA4202CAD1C3E7BDE810404FEA4103E4
:1018C00013F5001F38BF7047A1F1C04100F03EB9C9
:1018D0009EEA445F08D011EA5E0FBDE8104004BFE5
:1018E00001F0004100207047BDE8104070B500F0E5
:1018F000DFF800BF64FBBE3E0000E0FF4FEA41039B
:101900004FEA5353A3F58063D3F11E03C8BFD3F14D
:10191000210C0CDD4FF0004242EAC12242EA505253
:1019200032FA03FC8CEAE17CACEBE1707047102BDF
:10193000C4BF0020704703F5787CBCF1FF3F04D0A2
:101940006FF0004282EA2100704770B500F0B0F8F5
:101950004992248000207047F2E70000DFF848C178
:1019600070B51CEA111E1EBF1CEA13159EEA0C0F6F
:1019700095EA0C0F00F06F8081EA030423EA4C1310
:101980004EEAD47E21EA4C1141F4801143F48013D5
:10199000AE44A1FB024CA0FB0365AEF17F7E36197D
:1019A00055EB0C05A1FB034C4CF10003A0FB021C02
:1019B00016EB0C06654153F10003094218BF46F0CF
:1019C000010613F4007F0BD14FEA03314FEA0530D3
:1019D000340341EA155140EA16506FF003020AE061
:1019E0004FEAC3214FEAC520F40241EA555140EACB
:1019F00056506FF0020202EB2E4201EB025585EACF
:101A0000CE710AD05FEA440C18BF24F0004450F1B4
:101A1000000041F1000120EAD47040F2FE7C6245F2
:101A200000D270BDA84214BF4FF080444FF0404434
:101A3000002E08BF0024BEF1806FA8BFA1F1C041F5
:101A4000BDE8704080F282804FF0000001F1C0419B
:101A500001F0004170479EEA0C0F0CEA131518BF05
:101A600095EA0C0F06D04FF0000081EA030E0EF04D
:101A7000004170BD00F01CF88900013E00F007B87D
:101A800000F009B84FEA430C5FEA5C5C08D081EAD9
:101A9000030100F05BB84FEA410C5FEA5C5CF6D1F1
:101AA0004FF00000014970470000FF070000F87F79
:101AB0000EF1020E2EF0030E5EF8046B364205D4D2
:101AC000012A43EB030515F5001F12D8012841EB4D
:101AD000010C1CF5001F0CD80ED14FEAD17C15F576
:101AE000001F0CEB4C0C0CF1020C08BF4CEBD37C30
:101AF00004E04FF0080C01E04FEAD37C0CEB4C05FE
:101B000026FA05F606F00706B6F1040C06D20EEB2F
:101B1000860CBDE870404CF0010C6047DFE80CF02B
:101B2000090B02024FF000414FF00000A1F5002127
:101B300070BD19461046012851EB010418BFD4F5B9
:101B4000001484BF002001F0004170BD0808A0F51A
:101B500000114FEA3101704710B591EA030F48BFF9
:101B600083F000433FF52AAE841A71EB030C07D2D1
:101B700012198CF0004C43EB0C03001B61EB0C01C1
:101B8000DFF8A4E14FEA1154A4EB135C1EEA430F03
:101B900018BF9EEA445F00F0B08023EA6E03524211
:101BA00021EA0451C3EB6E0338BF5B1EDCF1200E4B
:101BB00025D322FA0CFE10EB0E0043FA0CFE41EB8B
:101BC0000E01CCF1200E03FA0EFE10EB0E0051F1C7
:101BD0000001CCF1200E29D412FA0EF201EB0451CF
:101BE000BDE8104058BF7047401C1CBFB2F1004F09
:101BF000704700280CBF491C20F00100704712EB11
:101C0000020E43EB030218BF4FF0010E4EEA4202F0
:101C1000ACF1200CDCF11E0E54D943FA0CFE10EB93
:101C20000E0051F1FF31CCF11E0ED5D50EF1010E93
:101C300012FA0EFE404141EB010101EB445C5FEA08
:101C40005C5C10D910EBDE7001EB045138BFBEF1C3
:101C5000004FBDE8104018BF704700280CBF491C5A
:101C600020F00100704730D24FEAD42C11F500115A
:101C700024F400641BD0B1FA81F20B3AA41AA41E1A
:101C8000D2F12003914030FA03F31943904001EB65
:101C9000CC71002C01EB0451BDE81040A8BF704787
:101CA00001F1C0414FF0000001F000417047B0FA6F
:101CB00080F310FA03F100D110BDE41A173C480577
:101CC000C90AE4E701EB045110BD491001EB0451CE
:101CD000BDE810404FEA300002E04FF000017047CD
:101CE0004A0008BF0042F8D0B2F5001F28BF704775
:101CF00001F000414FF0000070479EEA445F07D0BA
:101D000011EA5E0FBDE8104004BF002100207047BB
:101D1000BDE8104070B5FFF7CBFE00BF40DFF63ED8
:101D200083F00041104670470000E0FF43004FEA97
:101D3000D30C4FEA3C0C43401FBF40070CF16051ED
:101D400013F0FE4F70471CF0006F03D100200CF021
:101D5000004170470CF0004343EA507010B540EA70
:101D6000CC0000F03EF900BF000000924FEA0001F5
:101D7000FFF7ECBE4FF000414FF00000A1F500214D
:101D80007047000090EA010F48BF81F0004100F168
:101D90008481421A3CBF801A89184FEAD0524FF012
:101DA0007F4C1CEA410FA2EBD15318BF9CEA026F93
:101DB00000F03B804FF0004C4CEA00204CEA01213F
:101DC00021FA03FC10EB0C0C1ED202F1FF325FEA89
:101DD0001C2040EBC25038BF70471CF07F0F4FEA09
:101DE000400C18BFBCF17F4F38BF7047C3F12003D0
:101DF000994008BF20F00100BCF17F4F38BF704709
:101E0000A0F1C04000F033B94FEA3C00000A40EBBB
:101E1000C25028BF1CF0FF0F4FEA400CE6D018BF9D
:101E2000BCF17F4F38BF7047EAE79CEA026F05D0EC
:101E300010EA5C0F08BF00F00040704710B500F0DA
:101E4000D0F800BF64FBBE3EC10DD1F19E0206DB9F
:101E50004FEA002343F0004323FA02F070470042A8
:101E600007D54FEA4001B1F1FE4F02D24FF000001A
:101E7000704710B500F0B5F84992248000207047F3
:101E80006FEA20007047000010F0004148BF404258
:101E9000B0FA80F310FA03F2C3F19D030BD051EABC
:101EA000C35101EB1220530638BF704700F1010007
:101EB00008BF20F001007047B0FA80F310FA03F277
:101EC000C3F19D030AD0D90501EB1220530638BF98
:101ED000704700F1010008BF20F0010070470000CA
:101EE0004FF47F0C1CEAD0121EBF1CEAD11392EAF9
:101EF0000C0F93EA0C0F00F0478090EA010F48BFE7
:101F000042F480724FF0004C4CEA00204CEA012170
:101F100002EB0302A0FB0113A2F50002002918BF87
:101F200043F001035B0028BF4FEA330342EB224238
:101F30005FEA132C4CEBC2502EBFBCEB436FB2F5E3
:101F40007C0F70474FEA036CBCF1004F08BF20F0D4
:101F50000100B2F57C0F38BF70470BD582F0FF024D
:101F600012F5803FC8BF704700F1C040D8BF00F0F5
:101F70000040704700F5000C5FEA4C0C48BF70470A
:101F8000B0F1C04000F073B890EA010F0CEAD11331
:101F900048BF42F48072624538BF634504D280EA8C
:101FA000010000F00040704710B500F01AF800BFC3
:101FB0008900013E00F007B800F009B85FEA410C63
:101FC0005FEA1C6C08D080EA010000F050B85FEABC
:101FD000400C5FEA1C6CF6D14FF00040A0F5800089
:101FE00070470EF1020E2EF0030E5EF8044B2442F1
:101FF00004D44FEA4102B2F17F4F11D84FEA4003B7
:10200000B3F17F4F0CD80ED14FEAD07CB2F17F4FA5
:102010000CEB4C0C0CF1020C08BF4CEBD17C04E037
:102020004FF0080C01E04FEAD17C0CEB4C0324FA92
:1020300003F404F00704B4F1040C06D20EEB840C94
:10204000BDE810404CF0010C6047DFE80CF00708D9
:1020500002024FF00040A0F5800010BD084642008B
:1020600018BFD2F1807288BF00F0004010BDFF2180
:1020700041EAD050C005704780F0004090EA010F5F
:102080007FF587AE81F0004100F007B890EA010FBC
:1020900048BF81F000413FF57CAE421A04D882F07F
:1020A0000042A0EB020011444FEAD0524FF07F4CA7
:1020B0001CEA410FA2EBD15318BF9CEA026F4AD031
:1020C0004FF0004C4CEA00204CEA012121FA03FCBD
:1020D000B0EB0C0C0FD412F0FE0F36D05FEA4C00C0
:1020E0001DD5001240EBC25038BF70471CF03F0FA7
:1020F00018BF70470BE0A2F101025FEA1C2040EB21
:10210000C25038BF70471CF07F0F18BF7047C3F133
:102110002003994014BF401E20F001007047800842
:102120004FEA122308BF7047B0FA80FCA2EB0C0202
:10213000CCF1280C60FA0CF093EA122F04BF00EBEC
:10214000C25070474FEAC3707047130A5FEADC1051
:1021500008BF7047F6E79CEA026F04D010EA5C0FF4
:1021600008BF0020704710B5FFF73BFF40DFF63E89
:1021700081F0004070470000000000000000002FC8
:10218000000000000700070000147F147F140024E3
:102190002A7F2A1200626408132300364955225010
:1021A00000000503000000001C2241000000412245
:1021B0001C000014083E08140008083E080800002F
:1021C00000A0600000080808080800006060000027
:1021D000002010080402003E5149453E0000427FA5
:1021E0004000004261514946002141454B310018F1
:1021F00014127F10002745454539003C4A494930B3
:10220000000171090503003649494936000649496C
:10221000291E000036360000000056360000000877
:102220001422410000141414141400004122140854
:1022300000020151090600324959513E007C121139
:10224000127C007F49494936003E41414122007FCE
:102250004141221C007F49494941007F0909090188
:10226000003E4149497A007F0808087F0000417F0D
:102270004100002040413F01007F08142241007FBF
:1022800040404040007F020C027F007F0408107F26
:10229000003E4141413E007F09090906003E41518F
:1022A000215E007F0919294600464949493100014C
:1022B000017F0101003F4040403F001F2040201FA0
:1022C000003F4038403F0063140814630007087063
:1022D000080700615149454300007F414100005516
:1022E0002A552A55000041417F00000402010204E2
:1022F00000404040404000000102040000205454CF
:102300005478007F4844443800384444442000381E
:102310004444487F00385454541800087E09010290
:102320000018A4A4A47C007F080404780000447D65
:102330004000004080847D00007F102844000000A1
:10234000417F4000007C04180478007C0804047875
:1023500000384444443800FC242424180018242461
:1023600018FC007C0804040800485454542000045D
:102370003F444020003C4040207C001C2040201C6A
:10238000003C4030403C004428102844001CA0A0E1
:10239000A07C004464544C4414141414141400001D
:1023A000000000000000000000000000000000002D
:1023B00000F80000000000000033300000000010B2
:1023C0000C06100C0600000000000000000040C0D9
:1023D0007840C0784000043F04043F0404000070CB
:1023E00088FC08300000001820FF211E0000F008C3
:1023F000F000E018000000211C031E211E0000F068
:102400000888700000001E212324192721101016AF
:102410000E000000000000000000000000000000AE
:1024200000E018040200000000071820400000022D
:102430000418E000000000402018070000004040A1
:1024400080F0804040000202010F01020200000003
:1024500000F0000000000101011F01010100000067
:1024600000000000000080B07000000000000000CC
:102470000000000000000001010101010101000055
:1024800000000000000000303000000000000000EC
:10249000000080601804006018060100000000E0E1
:1024A00010080810E000000F102020100F0000108E
:1024B00010F8000000000020203F202000000070E5
:1024C00008080888700000302824222130000030DD
:1024D0000888884830000018202020110E000000D5
:1024E000C02010F8000000070424243F240000F856
:1024F0000888880808000019212020110E0000E03B
:10250000108888180000000F112020110E000038DC
:102510000808C83808000000003F000000000070F4
:10252000880808887000001C222121221C0000E07D
:1025300010080810E0000000312222110F000000F6
:1025400000C0C000000000000030300000000000AB
:10255000008000000000000080600000000000001B
:1025600080402010080000010204081020004040B4
:1025700040404040400004040404040404000008F7
:1025800010204080000000201008040201000070AC
:1025900048080808F0000000003036010000C03094
:1025A000C828E810E0000718272423140B000000B7
:1025B000C038E0000000203C23020227382008F841
:1025C000888888700000203F202020110E00C03035
:1025D000080808083800071820202010080008F80C
:1025E00008080810E000203F202020100F0008F805
:1025F0008888E8081000203F20202320180008F8D1
:102600008888E8081000203F200003000000C03048
:1026100008080838000007182020221E020008F8C9
:1026200008000008F808203F210101213F20000890
:1026300008F8080800000020203F202000000000CB
:102640000808F8080800C08080807F00000008F8B3
:1026500088C028180800203F20012638200008F8EC
:10266000080000000000203F20202020300008F853
:10267000F800F8F80800203F003F003F200008F86D
:1026800030C00008F808203F200007183F00E01085
:1026900008080810E0000F10202020100F0008F894
:1026A00008080808F000203F210101010000E010A7
:1026B00008080810E0000F18242438504F0008F8CC
:1026C000888888887000203F2000030C302000702C
:1026D0008808080838000038202121221C0018082A
:1026E00008F8080818000000203F2000000008F843
:1026F00008000008F808001F202020201F0008788C
:10270000880000C83808000007380E010000F808EB
:1027100000F80008F800033C0700073C0300081815
:1027200068808068180820302C03032C302008387B
:10273000C800C83808000000203F20000000100832
:102740000808C8380800203826212020180000007A
:1027500000FE020202000000007F40404000000C2A
:1027600030C000000000000000010638C000000278
:102770000202FE000000004040407F000000000018
:10278000040202020400000000000000000000003B
:102790000000000000008080808080808080000237
:1027A0000204000000000000000000000000000023
:1027B0008080808000000019242222223F2008F817
:1027C000008080000000003F112020110E0000005A
:1027D000008080800000000E1120202011000000E9
:1027E00000808088F800000E112020103F2000009B
:1027F000808080800000001F22222222130000809F
:1028000080F0888888180020203F202000000000E9
:10281000808080808000006B94949493600008F81E
:10282000008080800000203F210000203F200080A9
:102830009898000000000020203F202000000000A9
:1028400000809898000000C08080807F000008F819
:10285000000080808000203F24022D3020000008EE
:1028600008F8000000000020203F202000008080A9
:10287000808080808000203F20003F20003F8080BB
:10288000008080800000203F210000203F200000C9
:10289000808080800000001F202020201F0080807A
:1028A00000808000000080FFA12020110E000000A9
:1028B000008080808000000E112020A0FF8080809A
:1028C00080008080800020203F2120000100000047
:1028D000808080808000003324242424190000801C
:1028E00080E0808000000000001F20200000808029
:1028F000000000808000001F202020103F208080EA
:1029000080000080808000010E3008060100808079
:102910000080008080800F300C030C300F0000809E
:102920008000808080000020312E0E3120008080C9
:1029300080000080808080818E70180601000080F9
:102940008080808080000021302C22213000000017
:102950000000807C020200000000003F40400000B8
:102960000000FF00000000000000FF000000000267
:10297000027C800000000040403F00000000000694
:102980000101020204040000000000000000000039
:10299000B029000800000020500000006C01000871
:1029A000002A0008500000200025000088010008CF
:1029B00000A24A040000000000000000010203041D
:1029C00006070809000000000000000000000000E9
:1029D00000000000000000000000000000000000F7
:1029E00000000000000000000000000000000000E7
:1029F0000102030401020304060708090204060891
:0400000508000131BD
:00000001FF
