:020000040800F2
:1000000020260020ED0100083D1A0008D319000841
:10001000391A000819150008DB200008000000004C
:10002000000000000000000000000000A51D000806
:10003000A917000800000000551C0008B91E0008A0
:10004000070200080702000807020008070200086C
:10005000070200080702000807020008070200085C
:100060000702000807020008AD1700080702000891
:10007000070200080702000807020008070200083C
:10008000070200080702000807020008070200082C
:1000900007020008070200080702000829180008E4
:1000A000070200080702000807020008070200080C
:1000B00007020008070200080702000807020008FC
:1000C00007020008070200080702000807020008EC
:1000D000070200086D1F0008070200086F1F0008D4
:1000E00007020008070200080702000807020008CC
:1000F00007020008070200080702000807020008BC
:1001000007020008070200081D1F00080702000878
:10011000070200080702000807020008070200089B
:10012000070200080702000807020008070200088B
:1001300000F002F800F04AF80AA090E8000C8244AF
:100140008344AAF10107DA4501D100F03FF8AFF28C
:10015000090EBAE80F0013F0010F18BFFB1A43F0A5
:1001600001031847C42B0000E42B0000103A24BF01
:1001700078C878C1FAD8520724BF30C830C144BF0C
:1001800004680C607047000000230024002500264E
:10019000103A28BF78C1FBD8520728BF30C148BFEA
:1001A0000B607047662902F07285642900F0808038
:1001B000002070471FB500F033FB04000020002131
:1001C00002F0BCF9E0601FBD10B510BD00F040FCAE
:1001D0001146FFF7EFFF02F06BF800F05EFC03B48E
:1001E000FFF7F2FF03BC01F0E5FF0000094880477C
:1001F00009480047FEE7FEE7FEE7FEE7FEE7FEE709
:10020000FEE7FEE7FEE7FEE704480549054A064B20
:1002100070470000BD1E00083101000820200020AA
:1002200020260020202200202022002070470000ED
:100230000FB4044910B503AA029800F0DFFA10BC0D
:100240005DF814FB280000202DE9F0410E4604461D
:10025000002020622046E168884730B3252805D079
:10026000D4E901219047206A401CF2E7E16820466A
:1002700000278847050018D0A5F14100192802D8A9
:1002800020354FF400673246294620462760FFF7A5
:1002900089FF40B1012804D0F61D26F00706083674
:1002A000D8E7361DD6E72846DAE7206ABDE8F081B0
:1002B0002DE9F0410646002410687529314616A53F
:1002C00010D0AFF30080002802DA404213A507E007
:1002D00031688A0701D512A502E0490704D511A5A6
:1002E000012401E0AFF3008000210A2206F1240777
:1002F00009E0B0FBF2FCB0FBF2F302FB1C00303073
:1003000078541846491C0028F3D123462A46304623
:10031000BDE8F04100F00CB8000000002D00000026
:100320002B000000200000007047704770477047A6
:100330002DE9F0470D4699469246044600F12408FF
:100340000168880604D5E06921F01001216000E011
:100350000120A84201DD471B00E00027A1697A19AE
:1003600002EB0900081AA0612078C00602D42046DA
:10037000AFF30080002608E0D4E901211AF8060056
:100380009047206A401C761C20624E45F4DB2078A2
:10039000C0060AD52046AFF3008006E0D4E901216B
:1003A00030209047206A401C2062381EA7F10107C8
:1003B000F4DC07E0D4E9012118F805009047206A31
:1003C000401C2062281EA5F10105F3DC2046AFF396
:1003D00000802078000602D50220BDE8F0870120C9
:1003E000FBE770472DE9FF4F0C461E464FF0FF37E5
:1003F0008BB0D2E90001DDF860800A908A46C1F333
:100400000A5505B93D46002108464FF00000BAF1F3
:10041000000F00F4400005DA00EB80004FF44001CB
:1004200001EA50004FEA9059B9F1010F00DDB946D9
:100430000A9850EA4A000ED044F61050A5F2FF3553
:1004400045432F14B8F1000F1ED07542291E1EDD42
:10045000C9F100021CE0B8F1010F4FF0000001D01B
:10046000302103E0F24305E02154401CB042FBDBA5
:1004700030460022002121540B99C1F80880C1E9BF
:1004800000200FB0BDE8F08FBD1B6D1CDEE74A46B3
:1004900000DA694206A800F065FA06AB93E80700A7
:1004A00003AB83E8070050460A9900F03FFB8DE854
:1004B0000700A0F500501F3800900398002D09DDBB
:1004C00042F21F014A46084403A90390684600F01F
:1004D0009EFD08E0A0F500504A461F3803A903908E
:1004E000684600F0A8FD8DE807000004000C03D06A
:1004F0004FF0FF30410800E01046B8F1000F03D084
:100500000022009215461EE0751E05D400F08CF9FD
:10051000303262556D1EF9D5B3460122084302D030
:1005200000227F1C04E02078302801D100227F1EA9
:10053000002A099786D01DE0112D07DA00F074F922
:10054000303262556D1C50EA0102F5D1084302D0E9
:100550000098C8B10EE00021681E05E0235C625CD3
:1005600063542254401E491C8142F7DBAB46A81B52
:10057000401E0990002004F80B000B98099AC0F85F
:100580000880C0E9002B7CE711264FF0000859E7EE
:100590002DE9F04F88460446D21D22F0070191B0A4
:1005A000D1E90001CDE90A0101F0F0FD02460B9806
:1005B000C00F01D02D2007E02068810701D52B2036
:1005C00002E0202101EAC000032A099001D0072A95
:1005D00005DB03464146204600F084F90BE1207814
:1005E000800601D5E06900E00620B8F1650F81467C
:1005F00006D0B8F1660F18D0B8F1670F70D131E0AE
:100600000020B9F1110F009001DB112301E009F185
:1006100001030AAA01A90CA8FFF7E4FEDDE90C70AA
:10062000002609F10105834647E001204B46009072
:100630004FF000470AAA01A90CA8FFF7D3FEDDE995
:100640000DB00C995D46002610B909F101000D1896
:10065000B9EB050003D4C0F1FF3609F10105A5EBA4
:1006600009002BE0B9F1010F01DA4FF00109002078
:10067000B9F1110F0090484601DD112300E0034657
:100680000AAA01A90CA8FFF7ADFEDDE90C704D46E2
:1006900000268346207800070AD4AB4500DA5D4681
:1006A00001A8012D04DD411911F8011C302907D0E2
:1006B0004F4502DA17F1040F04DA012082460FE0F9
:1006C0006D1EEEE7002F02DCED1B3E4403E0781CBC
:1006D000A84200DD7D1CB81B00F1010A4FF0004765
:1006E0002078000703D4AA4501DB4FF0FF3A002130
:1006F000B7F1004F0DF143088DF8431024D00220CC
:100700002B23002F01DA7F422D230A21021EA0F1A4
:10071000010000DC5FB197FBF1FC97FBF1F201FBFC
:100720001C7C17460CF1300C08F801CDEEE7A8F15F
:10073000010003702188090501D5452100E06521EC
:10074000A0F1010800F8011C09980FA9A1EB080706
:10075000FF1D00B10120411901EBEA70A169384485
:10076000081A401EA0612078C00602D42046AFF3CC
:100770000080099828B1D4E901219047206A401CE3
:1007800020622078C00622D52046AFF300801EE00C
:10079000002E04DBB34502DD01A8805D00E03020BF
:1007A000D4E901219047206A401C2062761CAAF1FE
:1007B00001005FEA000A0AD100F032F8C06801685F
:1007C000405CD4E901219047206A401C2062281E29
:1007D000A5F10105DCDC07E0D4E9012118F8010BE3
:1007E0009047206A401C2062381EA7F10107F3DC05
:1007F0002046AFF30080032011B043E6074B70B5ED
:100800000D467B4400F05BF80446284600F018F9DA
:1008100010B14FF0FF3070BD204670BD8F1A000040
:1008200000487047E01F002030B5B0F10A024FEADF
:10083000900E71F100034EEA817EB0EB0E0061EB89
:1008400091014FEA101E4EEA017E10EB0E0041EBC3
:1008500011114FEA102E4EEA016E10EB0E0041EB23
:1008600011214FEA104E4EEA014E10EB0E0041EB03
:100870001141401841F100014FEAD00040EA4170B7
:100880004FEAD10110EB80054FEA810444EA9074ED
:1008900044EB01046D1944EB0404521BA3414FF0D7
:1008A000000348BF0A3200D530BD401C41F10001B1
:1008B00030BD000001694A1C02610878704700B52C
:1008C0008FB0CDE901310021059105497944CDE989
:1008D000031011466846FFF7B7FC0FB000BD0000DB
:1008E000E5FFFFFF2DE9F0411F460446032601689E
:1008F000072A01F4006004DB08B116A505E016A57F
:1009000003E008B115A500E015A521F01000206056
:10091000A069C01EA0610FB1401EA0612046AFF3C8
:1009200000804FB1D4E9012138469047206A401C2D
:100930002062C01C206206E0206AFAE7D4E90121A7
:1009400015F8010B9047761EF8D22046AFF30080D1
:10095000BDE8F0814E414E006E616E00494E46008A
:10096000696E66002DE9F047814616468AB0334825
:1009700078440DC88DE80D0030487844801C03ACE5
:100980000DC884E80D0041F69B300844372190FBE8
:10099000F1F290FBF1F5A5F1800501FB12041B3C7F
:1009A00002D56442012000E00020DFF890A08046DC
:1009B0000027FA44AAF1BE0A0DE0E00709D032464A
:1009C000684607EB47010AEB810100F034FB8DE834
:1009D000070064107F1C002CEFD1184F7F44AC3F00
:1009E00018E0E80714D007EB04100DF1180A90E89E
:1009F0000E008AE80E00C068F04201D198190890F4
:100A0000324606A903A800F016FB03AB83E80700F3
:100A10006D10641C002DE4D132466946B8F1000F18
:100A200003A802D000F0F3FA01E000F004FBC9E9EA
:100A30000001C9F808200AB0BDE8F0879C23000037
:100A4000007B00F08000704700487047C01F002006
:100A50007546FFF7F9FFAE4605006946534620F09C
:100A60000700854618B020B5FFF7CEFBBDE8204053
:100A70004FF000064FF000074FF000084FF0000B5A
:100A800021F00701AC46ACE8C009ACE8C009ACE80D
:100A9000C009ACE8C0098D46704710B50446AFF3F5
:100AA00000802046BDE81040FFF799BB4FF0013CA5
:100AB00050F8042B51F8043B9A4221D1A2EB0C03CD
:100AC000934313EACC1317D150F8042B51F8043B8D
:100AD0009A4215D1A2EB0C03934313EACC130BD12A
:100AE00050F8042B51F8043B9A4209D1A2EB0C03B5
:100AF000934313EACC13DBD04FF00000704700BFE4
:100B0000D01A01BAB1FA81F101F0180122FA01F00C
:100B1000CB40C1F12001DBB2C0B2C01A2CFA01F304
:100B2000D11A914311EAC311E6D170475FEA400C34
:100B300008BF91F0000F4FEA8C234FEAC12243EA2D
:100B400051514FEA1C5018BF00F5F0404FEA3000F9
:100B500018BF41F000415FEA6C5C00F02980BCF1F5
:100B6000FF3F08BF40F080407047130C06BF1204DF
:100B70004FF0100C4FF0000C130E04BF12020CF1DA
:100B8000080C130F04BF12010CF1040C930F04BFE7
:100B900092000CF1020CD30F04BF52000CF1010CB7
:100BA00011464FF00002A0F11F00A0EB0C007047AF
:100BB00011F0004F08BF704731F000413FF4D5AF4E
:100BC0000B0C06BF09044FF0100C4FF0000C0B0E7D
:100BD00004BF09020CF1080C0B0F04BF09010CF152
:100BE000040C8B0F04BF89000CF1020CCB0F04BF67
:100BF00049000CF1010CCCF12003A0EB0C0022FA0F
:100C000003F302FA0CF241EA030100F1010070471C
:100C100020F07F4C80EA030023F07F47ACEB070312
:100C200003F57C5300F0004003F1FF032DE98049F8
:100C30004FEA154B09B44FEA144325EA0B4E24EA58
:100C400003480FF2042606EB132749083E785FEAB3
:100C5000320203FB0667C7F5000707FB06F64FEAFB
:100C600054374FEAD64606F1020607FB066CCCF174
:100C7000005C4FEA1C472CEA074C07FB06F40CFB10
:100C800006F504EB15464FEA961634BF00204FF0E8
:100C900000404FEAD13706FB07FC4FEA1C4C0CFB27
:100CA0000BF7D21B03FB0CF761EB07010CFB0EF7F4
:100CB000B0EB074072EB17420CFB08F734BFA2EB16
:100CC0000742B2EB074261EB17414FEA0C444FEA8F
:100CD000910706FB07FC4FEA1C4C0CFB0BF7B0EB33
:100CE000C74072EB573203FB0CF734BFA2EBC7428D
:100CF000B2EBC74261EB57310CFB0EF7B0EBC7000C
:100D000072EB57720CFB08F734BFA2EBC702B2EBD1
:100D1000C70261EB5771039F4FEA816141EA92116B
:100D200004EBCC044FEAD1374FEA826206FB07FCA2
:100D300042EA90124FEA80604FEA1C4C0CFB0BF722
:100D4000D21B03FB0CF761EB07010CFB0EF7B0EBBA
:100D5000074072EB17420CFB08F734BFA2EB0742C7
:100D6000B2EB074261EB17414FEA8C554FEA91070E
:100D700004EB9C2406FB07FC4FEA1C4C0CFB0BF716
:100D8000B0EBC74072EB573203FB0CF734BFA2EB5A
:100D9000C742B2EBC74261EB57310CFB0EF7B0EB29
:100DA000C70072EB57720CFB08F734BFA2EBC70207
:100DB000B2EBC70261EB577115EB4C254FEA81612D
:100DC00041EA92114FEA82624FEAD13742EA901229
:100DD00006FB07FC44F100044FEA80604FEA1C4C1C
:100DE0000CFB0BF7D21B03FB0CF761EB07010CFBB1
:100DF0000EF7B0EB074072EB17420CFB08F734BF5D
:100E0000A2EB0742B2EB074261EB174115EB1C1551
:100E10004FEA813141EA92414FEA823242EA9042FE
:100E20004FEA80304FEA0C7644F1000448EA03436D
:100E30004EEA0B484FF0000EB2EB080C71EB0307C3
:100E400024BF624639464EEB0E0E4FF0000B0018E1
:100E5000524149414BEB0B0BB2EB080C71EB030712
:100E60007BF1000B24BF624639464EEB0E0E4FF06D
:100E7000000B0018524149414BEB0B0BB2EB080C35
:100E800071EB03077BF1000B24BF624639464EEB42
:100E90000E0E51EA020718BF46F0010616EB0E7659
:100EA00055F1000254F1000103D5BDE88901BDE808
:100EB0000088BDE88901BDE80048B619524141EB00
:100EC0000101A3F10103704780807F7E7D7C7B7AE6
:100ED0007978777676757473727171706F6E6E6DE6
:100EE0006C6C6B6A6A69686867666665646463638C
:100EF00062616160605F5F5E5E5D5D5C5C5B5B5A12
:100F00005A5959585857575656555555545453537E
:100F100052525251515050504F4F4F4E4E4D4D4DD9
:100F20004C4C4C4B4B4B4A4A4A4949494848484724
:100F30004747474646464545454444444443434362
:100F40004342424242414141002B26D4770021D006
:100F50001CB54FEA370703B44FF010004FF01001F3
:100F60004FF000000FBCBDE810400BF1010BBBF1CE
:100F7000010F08BF5FEA170722BF12F1010211F14A
:100F800001014FF0004143F1000300F0004043EA4B
:100F900000007047F9D35708DAE746EA064613F12E
:100FA000400F4FEA16461FDD13F1200FDFBF164337
:100FB0000A46002120335B42C8D0C3F1200746EA2D
:100FC000064602FA07F74FEA164646EA0706C3F155
:100FD000200722FA03F201FA07F721FA03F14FF092
:100FE000000342EA0702B1E746EA020646EA06467D
:100FF0004FEA164646EA0106BCBF46EA0646360CEC
:101000004FF000034FF000024FF000019EE72DE982
:10101000C048934630B491E8380007C831EA400C24
:1010200048BF34EA430C03D5FFF7F2FDFFF78CFF0E
:10103000F0BCBDE800882DE9C048934630B491E883
:10104000380007C810F0804F08BF13F0804F03D15D
:1010500000F005F8FFF778FFF0BCBDE8008820F04D
:101060007F4780EA030023F07F4C07EB0C03A3F5D6
:101070007C5300F00040A3F1FE0392F0000F00F05B
:10108000B38095F0000F00F077802DE901494FEA19
:1010900011404FEA144621EA004800FB06FC24EA0E
:1010A000064708FB06F607FB08F800FB07F718EBF6
:1010B00006484CEB164C4FEA124B18EB07484FEA28
:1010C00015464CEB174022EA0B4E0BFB06FC25EABB
:1010D00006470EFB06F607FB0EFE0BFB07F71EEBA3
:1010E000064E4CEB164C4FF000061EEB074E4CEB39
:1010F000174B18EB0B0840F1000018EB0E0B58EBE8
:10110000000840F100008F1A4FF000013CBFC943B6
:10111000661B14BFB5EB040C00213CBFC943F61B92
:101120004FEA17444EEA8E0E27EA04454FEA1C4761
:1011300004FB07622CEA074C05FB07F70CFB05F6DE
:1011400004FB0CFC16EB074642EB174216EB0C4671
:1011500042EB1C421BEB060658EB0202414146EAF9
:101160009E0601D5BDE80189B619524141EB010146
:10117000A3F10103BDE801894FEA14454FEA114785
:1011800024EA054621EA074C05FB07F406FB07F7AE
:101190000CFB06F105FB0CFC11EB074144EB17447B
:1011A0004FEA124711EB0C4144EB1C4422EA074C76
:1011B00005FB07F206FB07F70CFB06F605FB0CFC2C
:1011C00016EB074642EB174216EB0C4642EB1C456A
:1011D0006A1854F1000148BF7047B619524141EBFB
:1011E0000101A3F10103704795F0000F37D04FEADA
:1011F00011424FEA144721EA024624EA074C02FB57
:1012000007F106FB07F70CFB06F402FB0CFC14EBE2
:10121000074441EB17414FEA154714EB0C4441EBEF
:101220001C4125EA074C02FB07F506FB07F70CFB00
:1012300006F602FB0CFC16EB074645EB174516EBD2
:101240000C4645EB1C42121951F1000148BF704792
:10125000B619524141EB0101A3F1010370474FEA76
:1012600014454FEA114724EA054621EA074C05FBDD
:1012700007F106FB07F70CFB06F24FF0000605FB33
:101280000CFC12EB074241EB174112EB0C4251EB05
:101290001C4148BF7047921841EB0101A3F10103C3
:1012A000704721B1826842F00102826003E08268E7
:1012B00022F001028260704710B504461248844251
:1012C00008D10121401500F0F3FC0021601500F069
:1012D000EFFC17E00D48844208D10121001500F011
:1012E000E7FC0021201500F0E3FC0BE008488442F5
:1012F00008D10121C80300F0DBFC00214FF40040BD
:1013000000F0D6FC10BD0000002401400028014080
:10131000003C0140014600208A6802F004020AB144
:10132000012000E0002070470146C86C80B2704781
:101330000246002013680B400BB1012000E00020A2
:101340007047014600208A6802F008020AB10120B5
:1013500000E000207047000030B502460020002366
:1013600050680F4C20400D790C6844EA0524204356
:10137000506090680B4C2040D1E902542C434D79C9
:1013800044EA450420439060D06A20F470000C7C4D
:10139000641EE4B2234340EA0350D06230BD000033
:1013A000FFFEF0FFFDF7F1FFF0B504460D4600200B
:1013B0000021092D11DDE068A5F10A0606EB4607BC
:1013C000072606FA07F18843A5F10A0606EB46064A
:1013D00003FA06F10843E0600CE0206905EB4507DD
:1013E000072606FA07F1884305EB450603FA06F1DE
:1013F00008432061072A0FDA606B561E06EB86074A
:101400001F2606FA07F18843561E06EB860605FAE4
:1014100006F10843606322E00D2A0FDA206BD61F25
:1014200006EB86071F2606FA07F18843D61F06EB50
:10143000860605FA06F10843206310E0E06AA2F18F
:101440000D0606EB86071F2606FA07F18843A2F170
:101450000D0606EB860605FA06F10843E062F0BDCC
:10146000816841F008018160704721B1826842F4CF
:10147000A002826003E0826822F4A00282607047CA
:10148000816841F0040181607047000000B587B0B9
:1014900001214FF4017000F0FBFB4FF4004000F01D
:1014A000DBFB0220ADF8040000208DF8070001A945
:1014B000174800F0CDF91748FFF7FEFE0020029014
:1014C0008DF80C008DF80D004FF460200490002082
:1014D000059001208DF8180002A90E48FFF73CFF87
:1014E00001210C48FFF7DDFE0A48FFF7B9FF00BFF6
:1014F0000848FFF726FF0028FAD10648FFF7C0FF8B
:1015000000BF0448FFF706FF0028FAD107B000BD6E
:10151000000801400024014000BFFEE710B5002490
:101520001548006820F00F0013490860084600685D
:1015300040F00800086004E0601CC4B2012000F024
:1015400083FE0E48006808B1C82CF5DBC82C01DB0F
:10155000012010BD002404E0601CC4B2012000F092
:1015600073FE0648006808B9F02CF5DBF02C01DBAF
:101570000120EEE70020ECE70008014000012142D5
:101580002DE9F84F00F0CAF800F0A6F8FFF7C6FF03
:10159000CC2000F0CFF8BE2000F0CCF800F08AF8A4
:1015A000834600F087F80446072C08DDE043C4B208
:1015B0006FEA0B0000F0FF0B4FF0000A01E04FF064
:1015C000010AA1464FEA09200FFA80F909EB0B0046
:1015D0000FFA80F9484601F0F7FA009001F0C8FAD6
:1015E00007460022084B01F0DBF8054601F096F8AB
:1015F0000FFA80F9BAF1000F02D04846BDE8F88F23
:10160000C9F1000000B2F9E70000E43F08B501218C
:10161000042000F03DFB0120ADF8000010208DF803
:10162000030003208DF802006946064800F010F917
:101630000121044800F099F900F04EF8FFF76EFF21
:1016400008BD00000008014010B51748006820F0F0
:101650000F00154908600846006840F00300086064
:10166000002012490860022000F0EEFD0120104920
:10167000C1F880010C48006820F00F000A4908609A
:101680000846006840F0080008600C2000F0DCFD0F
:1016900006488038006808B1012400E000243220A8
:1016A00000F0D2FD204610BD00080140800121421B
:1016B0000000214270B50026012508E0FFF7C4FFB5
:1016C0000446E00140EA6600C6B2681CC5B2082DB7
:1016D000F4DD304670BD000010B50D48006820F004
:1016E0000F000B4908600846006840F003000860DE
:1016F00000200849086040F2EE2000F0A5FD01201E
:101700000549C1F880010F2000F09EFD10BD0000CA
:1017100000080140800121420000214210B5FFF77E
:10172000DBFFFFF7FBFECC2000F004F8442000F0C4
:1017300001F810BD70B504461848006820F00F008D
:10174000164908600846006840F00300086001255B
:1017500020E004F0010664106EB10020104908601A
:10176000022000F071FD01200E49C1F880013C20EB
:1017700000F06AFD0CE00020094908603C2000F000
:1017800063FD01200749C1F88001022000F05CFDE3
:10179000681CC5B2082DDCDD70BD000000080140EA
:1017A00080012142000021427047000010B51A4814
:1017B0000068132826DD19480068462822DA1648F2
:1017C0000068032190FBF1F201FB1200D0B9002464
:1017D00000E0641C5F2CFCDD63240CE01048006812
:1017E0000E49096801EBC10202EB01110D4A02EB3F
:1017F00081010855641E002CF0DA08480068401C7E
:101800000649086004480068401C0349086010202D
:1018100000F018F810BD00001C000020200000207F
:10182000148122424C00002010B5002003490860BA
:1018300003490860402000F005F810BD200000209A
:101840001C0000200149086070470000140401409A
:101850002DE9F04102460025002600200023002447
:10186000002791F803C00CF00F0591F803C00CF0AD
:10187000100CBCF1000F03D091F802C04CEA050532
:1018800091F800C0BCF1000F31D0146800202BE0AB
:101890004FF0010C0CFA00F3B1F800C00CEA03069B
:1018A0009E4220D183004FF00F0C0CFA03F7BC438B
:1018B00005FA03FC4CEA040491F803C0BCF1280FBC
:1018C00006D14FF0010C0CFA00FCC2F814C00AE07B
:1018D00091F803C0BCF1480F05D14FF0010C0CFA90
:1018E00000FCC2F810C0401C0828D1D31460B1F825
:1018F00000C0BCF1FF0F34DD546800202EE000F181
:10190000080C4FF0010808FA0CF3B1F800C00CEA1B
:1019100003069E4221D183004FF00F0C0CFA03F70F
:10192000BC4305FA03FC4CEA040491F803C0BCF183
:10193000280F05D100F1080C08FA0CF8C2F8148041
:1019400091F803C0BCF1480F07D100F1080C4FF02B
:10195000010808FA0CF8C2F81080401C0828CED301
:101960005460BDE8F081416170470161704700003B
:1019700010B504460723012221460948FFF714FD4C
:1019800001210748FFF771FD00BF02210448FFF75E
:10199000CFFC0028F9D00248FFF7C6FC10BD0000BC
:1019A000002401402DE9F04107460C4600250026A1
:1019B00008E03846FFF7DCFF0544052000F01EFC78
:1019C000701CC6B2A642F4DBB5FBF4F080B2BDE8F1
:1019D000F08100BFFEE7000010B580210748FFF747
:1019E000C4FF40210548FFF7C0FF40210348FFF72F
:1019F000BAFF80210148FFF7B6FF10BD000C01407F
:101A000010B580210548FFF7B0FF40210348FFF7DC
:101A1000AAFF40210148FFF7A8FF10BD000C0140BC
:101A200010B580210348FFF7A0FF80210148FFF790
:101A30009AFF10BD000C014000BFFEE77047000098
:101A400070B5002100230F22C47804B3154C24681C
:101A500004F4E064C4F5E064210AC1F10403CA405F
:101A6000447804FA03F184781440214309010E4CB0
:101A70000678A155047804F01F050124AC400578D0
:101A80006D11AD0005F1E025C5F8004109E00478CD
:101A900004F01F050124AC40044D0678761145F88A
:101AA000264070BD0CED00E000E400E080E100E0C5
:101AB00002490143024A1160704700000000FA0524
:101AC0000CED00E070B5002418E004F1B000002136
:101AD00000F0B4F80021084600F0B0F80021102012
:101AE00000F0ACF8002505E00121002000F0A6F888
:101AF000681CC5B2802DF7DB601CC4B2082CE4DB87
:101B000070BD000008B50121082000F0C1F8802058
:101B1000ADF8000010208DF8030003208DF80200BE
:101B200069464548FFF794FE80214348FFF71DFFB3
:101B30004020ADF8000010208DF8030003208DF840
:101B4000020069463C48FFF783FE40213A48FFF710
:101B50000CFFC82000F052FB0021AE2000F06EF810
:101B60000021084600F06AF80021102000F066F815
:101B70000021402000F062F80021B02000F05EF863
:101B80000021812000F05AF80021FF2000F056F8D3
:101B90000021A12000F052F80021A62000F04EF80C
:101BA0000021A82000F04AF800213F2000F046F86C
:101BB0000021C82000F042F80021D32000F03EF8B8
:101BC0000021084600F03AF80021D52000F036F850
:101BD0000021802000F032F80021D82000F02EF8FB
:101BE0000021052000F02AF80021D92000F026F875
:101BF0000021F12000F022F80021DA2000F01EF888
:101C00000021122000F01AF80021DB2000F016F865
:101C10000021302000F012F800218D2000F00EF895
:101C20000021142000F00AF80021AF2000F006F88F
:101C3000FFF748FF08BD0000000C014070B50446E6
:101C40000D461DB1E0B200F08BFA02E0E0B200F008
:101C500071FA70BD7047000001460020034A5068C9
:101C600020F44040084350607047000000100240DC
:101C700029B1064AD2690243044BDA6104E0034AFF
:101C8000D2698243014BDA617047000000100240C4
:101C900029B1064A92690243044B9A6104E0034A5F
:101CA00092698243014B9A61704700000010024024
:101CB00029B1064AD2680243044BDA6004E0034AC1
:101CC000D2688243014BDA60704700000010024086
:101CD00030B500210022002400232D4D6D6805F051
:101CE0000C0121B1042905D0082923D105E0294D93
:101CF000056022E0274D05601FE0254D6D6805F465
:101D00007012234D6D6805F48034022505EB924274
:101D10001CB9214D554305600BE01D4D6D6805F460
:101D200000351DB11C4D5543056002E0194D55436A
:101D3000056002E0174D056000BF00BF144D6D68DF
:101D400005F0F0010909154D6B5C0568DD40456043
:101D50000F4D6D6805F4E061090A104D6B5C456834
:101D6000DD4085600A4D6D6805F46051C90A0B4D70
:101D70006B5C4568DD40C560054D6D6805F440410C
:101D8000890B074D6B5CC568B5FBF3F5056130BD8C
:101D90000010024000127A0000093D0036000020C9
:101DA00046000020704710B500F002F810BD00009A
:101DB0000CB50020019000903348006840F480305A
:101DC0003149086000BF3048006800F400300090DE
:101DD0000198401C0190009818B90198B0F5A06FC7
:101DE000F1D12948006800F4003010B101200090C2
:101DF00001E0002000900098012843D123480068AA
:101E000040F01000214908600846006820F00300F7
:101E100008600846006840F0020008601A48406800
:101E2000194948600846406848600846406840F4E0
:101E3000806048600846406820F47C10486008468E
:101E4000406840F4E81048600846006840F0807040
:101E5000086000BF0C48006800F000700028F9D04E
:101E60000948406820F00300074948600846406878
:101E700040F00200486000BF0348406800F00C00DA
:101E80000828F9D10CBD00000010024000200240DB
:101E9000042808D14FF0E021096941F004014FF016
:101EA000E022116107E04FF0E021096921F004010F
:101EB0004FF0E022116170477047000010B51348E1
:101EC000006840F001001149086008464068104968
:101ED00008400E494860084600680E4908400B4912
:101EE00008600846006820F48020086008464068C2
:101EF00020F4FE0048604FF41F008860FFF753FF96
:101F00004FF000600449086010BD0000001002405E
:101F10000000FFF8FFFFF6FE08ED00E010B501211C
:101F2000064800F012F840B105480078401C04490A
:101F300008700121014800F005F810BD000C0040B8
:101F400018000020CA430282704730B502460020C4
:101F500000230024158A05EA0103958905EA010496
:101F600013B10CB1012000E0002030BD7047704774
:101F700010B5164800F0ACF81549164A127821F849
:101F800012001448007818B90846008800B110BD46
:101F900010480078401C0F49087008460078042853
:101FA00011DB0B4800880C490880094880880B49E0
:101FB000088007484088097840EA012007490880DE
:101FC00000200449087000BFE1E70000004800401D
:101FD000B41F002031000020320000203400002017
:101FE00021B1828942F40052828104E082894DF657
:101FF000FF731A40828170472DE9F04786B005468D
:102000000E460024A24600BFA1460027B08900B1B9
:1020100000BF2F462C8A4CF6FF700440F088044322
:102020002C82AC894EF6F3100440B0883189084305
:10203000718908430443AC81AC8A4FF6FF400440E9
:10204000B0890443AC8201A8FFF742FE1F488742D3
:1020500002D1DDF810A001E0DDF80CA0A88900F4A1
:10206000004040B10AEBCA0000EB0A103168490099
:10207000B0FBF1F807E00AEBCA0000EB0A10316888
:102080008900B0FBF1F86420B8FBF0F004012009EE
:10209000642101FB1089A88900F4004040B132207E
:1020A00000EBC900B0FBF1F000F00700044308E0CA
:1020B000322000EB09106421B0FBF1F000F00F00BA
:1020C00004432C8106B0BDE8F087000000380140D1
:1020D00001468888C0F30800704700BFFEE7000093
:1020E0002DE9F04105462C4680211148FFF73BFCC5
:1020F000002619E0274607F08007802F04D14021F1
:102100000B48FFF732FC03E040210948FFF72BFCA6
:102110006006040E80210648FFF727FC8021044852
:10212000FFF721FC701CC6B2082EE3DBBDE8F0818E
:10213000000C014010B50446FFF74EFC7820FFF775
:10214000CFFFFFF76DFC0020FFF7CAFFFFF768FC29
:102150002046FFF7C5FFFFF763FCFFF751FC10BDFA
:1021600010B50446FFF738FC7820FFF7B9FFFFF7FA
:1021700057FC4020FFF7B4FFFFF752FC2046FFF763
:10218000AFFFFFF74DFCFFF73BFC10BD490050EAE5
:10219000C12018BF04204A0D18BF40F0010040F2D2
:1021A000FF72B2EB515F08BF40F00200012808BF88
:1021B0000520704700BF704710B56FF00400FFF7AF
:1021C00067FE0A4800680A49B0FBF1F00949087047
:1021D0000846007800EB4001C1EBC0104FF6FF71DC
:1021E00001EAC0000449088010BD00000000002082
:1021F00000127A0024000020260000200146114A27
:1022000012884A434FF0E0235A6100229A611A462D
:10221000126942F001021A6100BF4FF0E02210691A
:1022200000F001021AB100F48032002AF5D04FF01C
:10223000E022126922F001024FF0E0231A6100222D
:102240009A617047260000200146114A12784A43DD
:102250004FF0E0235A6100229A611A46126942F057
:1022600001021A6100BF4FF0E022106900F0010284
:102270001AB100F48032002AF5D04FF0E022126942
:1022800022F001024FF0E0231A6100229A617047A8
:102290002400002000BF054A128802F04002002AF4
:1022A000F9D0C2B2014B1B1D1A80704700380140A3
:1022B0001FB54FF0000A4FF4A060FFF7F9FBFFF7DE
:1022C0007BFF4FF4165000F0AFF84FF4165000F0BB
:1022D000EBF8FFF717FCFFF7D9F8FFF797F906209F
:1022E0003A49088048808880C88008816CE00A21CB
:1022F0000120FFF757FB8346584600F03EFA074699
:10230000334A344B00F04CFA334A344BCDE90001E8
:1023100000F046FA324A334BCDE9020100F056F99B
:10232000054600F021F981460AF1010000F0FF0A9C
:102330004FF49670FFF762FFFFF71AFE2A48017804
:102340002AA0FDF775FF2148018828A0FDF770FF3E
:102350001E48418825A0FDF76BFF1C48818823A0FB
:10236000FDF766FF1948C18820A0FDF761FF1748F7
:1023700001891EA0FDF75CFF14209AFBF0F100FB21
:1023800011A0F0B94FF0000AFFF7FAF804461B4815
:1023900001881BA0FDF74CFF484600F0E9FB05460D
:1023A0002A460B4619A0FDF743FF0A2094FBF0F1E3
:1023B00000FB114594FBF0F62A46314616A0FDF7C6
:1023C00037FF0520FFF71AFF91E70000B41F002038
:1023D000FCA9F1D24D62503F07CE1951DADB17C08C
:1023E000E17A14AE4741364031000020636F756ECC
:1023F0007465723A2025640A2E2E2E0034000020C7
:102400005444533A2025642020200A0070683A2062
:102410002025662020200A0054454D3A2025642EB0
:1024200025646320200A000010B586B0044601210F
:102430000820FFF72DFC01218804FFF719FC4FF459
:102440008060ADF8140003208DF8160018208DF878
:10245000170005A91248FFF7FBF94FF40060ADF82B
:10246000140004208DF8170005A90D48FFF7F0F9B6
:1024700001940020ADF80800ADF80A00ADF80C009A
:10248000ADF810000C20ADF80E0001A90548FFF7CB
:10249000B3FD01210348FFF7A3FD06B010BD000006
:1024A000000C01400048004010B586B004460121F0
:1024B00044F20400FFF7ECFB4FF40070ADF8140099
:1024C00003208DF8160018208DF8170005A919486B
:1024D000FFF7BEF94FF48060ADF8140004208DF8CA
:1024E000170005A91348FFF7B3F925208DF8000060
:1024F00000208DF8010001208DF802008DF8030006
:102500006846FFF79DFA01940020ADF80800ADF889
:102510000A00ADF80C00ADF810000C20ADF80E006C
:1025200001A90548FFF768FD01210348FFF758FDA1
:1025300006B010BD000801400038014010B5002968
:102540000AD00878002807D005487844FEF7AEFA8C
:10255000002801D0002010BD0248784410BD0000C2
:10256000FE070000F607000021F00042A2F16052D1
:10257000B2F5801F01F0004328BFD2F17F6C0BD968
:102580005FEA001C43EAC20242EB507018BF70477A
:1025900028BF20F001007047B2F5801FBCBF18466D
:1025A00070474FEA410C1CF5001F02D2084600F0AC
:1025B00069BB70B500F09EF900000089FFF7F6BF17
:1025C0004FF00040A0F580007047000010B591EA80
:1025D000030F48BF83F0004300F1E881841A71EBD8
:1025E000030C05D2121943EB0C03001B61EB0C0129
:1025F000DFF824E14FEA1154A4EB135C1EEA430F09
:1026000018BF9EEA445F73D023EA0E03DCF1200E6C
:1026100021EA045143F4801332D322FA0CFE10EB6A
:102620000E0023FA0CFE41EB0E01CCF1200E03FA52
:102630000EFE10EB0E0051F10001B1F5801FCCF140
:10264000200E32D201EB045112FA0EF2BDE8104016
:1026500058BF7047401C38BF5FEA420218BF70473E
:10266000002814BF20F0010041F100014FEA4103AE
:1026700013F5001F38BF7047A1F1C04100F088B9C1
:10268000012A43EB0302ACF1200CDCF11F0E32BF38
:102690004FF0000E23FA0CF310EB030041EB045152
:1026A000B4EB115FD0D0A1EB045101F580114908C2
:1026B0005FEA300001EB04510ED350F1000038BF47
:1026C00012FA0EFE08D1BDE81040C9E7401C38BF21
:1026D0005FEA4202CAD1C3E7BDE810404FEA4103B6
:1026E00013F5001F38BF7047A1F1C04100F050B989
:1026F0009EEA445F08D011EA5E0FBDE8104004BFB7
:1027000001F0004100207047BDE8104070B500F0B6
:10271000F1F800BF64FBBE3E0000E0FF4FEA41035A
:102720004FEA5353A3F58063D3F11E03C8BFD3F11F
:10273000210C0CDD4FF0004242EAC12242EA505225
:1027400032FA03FC8CEAE17CACEBE1707047102BB1
:10275000C4BF0020704703F5787CBCF1FF3F04D074
:102760006FF0004282EA2100704770B500F0C2F8B5
:102770004992248000207047F2E7B0FA80F310FA03
:1027800003F10AD0C3F11D0303F580634FEA415002
:102790004FEA035202EBD12170474FF0000070471F
:1027A000DFF848C170B51CEA111E1EBF1CEA1315E4
:1027B0009EEA0C0F95EA0C0F00F06F8081EA03048B
:1027C00023EA4C134EEAD47E21EA4C1141F48011E5
:1027D00043F48013AE44A1FB024CA0FB0365AEF1B1
:1027E0007F7E361955EB0C05A1FB034C4CF1000321
:1027F000A0FB021C16EB0C06654153F100030942D5
:1028000018BF46F0010613F4007F0BD14FEA0331E5
:102810004FEA0530340341EA155140EA16506FF093
:1028200003020AE04FEAC3214FEAC520F40241EA5D
:10283000555140EA56506FF0020202EB2E4201EB76
:10284000025585EACE710AD05FEA440C18BF24F025
:10285000004450F1000041F1000120EAD47040F240
:10286000FE7C624500D270BDA84214BF4FF0804488
:102870004FF04044002E08BF0024BEF1806FA8BF77
:10288000A1F1C041BDE8704080F282804FF00000AD
:1028900001F1C04101F0004170479EEA0C0F0CEAC3
:1028A000131518BF95EA0C0F06D04FF0000081EA0F
:1028B000030E0EF0004170BD00F01CF88900013ECF
:1028C00000F007B800F009B84FEA430C5FEA5C5C1F
:1028D00008D081EA030100F05BB84FEA410C5FEADF
:1028E0005C5CF6D14FF00000014970470000FF0723
:1028F0000000F87F0EF1020E2EF0030E5EF8046B5E
:10290000364205D4012A43EB030515F5001F12D802
:10291000012841EB010C1CF5001F0CD80ED14FEA29
:10292000D17C15F5001F0CEB4C0C0CF1020C08BF10
:102930004CEBD37C04E04FF0080C01E04FEAD37C71
:102940000CEB4C0526FA05F606F00706B6F1040C6A
:1029500006D20EEB860CBDE870404CF0010C6047CF
:10296000DFE80CF0090B02024FF000414FF00000CD
:10297000A1F5002170BD19461046012851EB010454
:1029800018BFD4F5001484BF002001F0004170BDD1
:102990000808A0F500114FEA3101704710B591EA1F
:1029A000030F48BF83F000433FF518AE841A71EB64
:1029B000030C07D212198CF0004C43EB0C03001BE4
:1029C00061EB0C01DFF8A4E14FEA1154A4EB135CB6
:1029D0001EEA430F18BF9EEA445F00F0B08023EA6E
:1029E0006E03524221EA0451C3EB6E0338BF5B1EF3
:1029F000DCF1200E25D322FA0CFE10EB0E0043FA78
:102A00000CFE41EB0E01CCF1200E03FA0EFE10EB92
:102A10000E0051F10001CCF1200E29D412FA0EF271
:102A200001EB0451BDE8104058BF7047401C1CBF6B
:102A3000B2F1004F704700280CBF491C20F0010084
:102A4000704712EB020E43EB030218BF4FF0010E6A
:102A50004EEA4202ACF1200CDCF11E0E54D943FACE
:102A60000CFE10EB0E0051F1FF31CCF11E0ED5D54E
:102A70000EF1010E12FA0EFE404141EB010101EB95
:102A8000445C5FEA5C5C10D910EBDE7001EB045132
:102A900038BFBEF1004FBDE8104018BF7047002896
:102AA0000CBF491C20F00100704730D24FEAD42CF3
:102AB00011F5001124F400641BD0B1FA81F20B3A35
:102AC000A41AA41ED2F12003914030FA03F3194353
:102AD000904001EBCC71002C01EB0451BDE810409B
:102AE000A8BF704701F1C0414FF0000001F0004164
:102AF0007047B0FA80F310FA03F100D110BDE41A68
:102B0000173C4805C90AE4E701EB045110BD491020
:102B100001EB0451BDE810404FEA300002E04FF0F5
:102B2000000170474A0008BF0042F8D0B2F5001F0C
:102B300028BF704701F000414FF0000070479EEA47
:102B4000445F07D011EA5E0FBDE8104004BF0021CA
:102B500000207047BDE8104070B5FFF7CBFE00BF06
:102B600040DFF63E83F00041104670470000E0FF72
:102B700043004FEAD30C4FEA3C0C43401FBF4007D1
:102B80000CF1605113F0FE4F70471CF0006F03D141
:102B900000200CF0004170470CF0004343EA5070F5
:102BA00010B540EACC0000F027F800BF000000920A
:102BB0004FEA0001FFF7ECBE4FF000414FF000007C
:102BC000A1F500217047000010F0004148BF4042CD
:102BD000B0FA80F310FA03F2C3F19D030BD051EA6F
:102BE000C35101EB1220530638BF704700F10100BA
:102BF00008BF20F0010070470EF1020E2EF0030E08
:102C00005EF8044B244204D44FEA4102B2F17F4FF4
:102C100011D84FEA4003B3F17F4F0CD80ED14FEAE1
:102C2000D07CB2F17F4F0CEB4C0C0CF1020C08BFC6
:102C30004CEBD17C04E04FF0080C01E04FEAD17C72
:102C40000CEB4C0324FA03F404F00704B4F1040C75
:102C500006D20EEB840CBDE810404CF0010C60472E
:102C6000DFE80CF0070802024FF00040A0F58000FA
:102C700010BD0846420018BFD2F1807288BF00F034
:102C8000004010BDFF2141EAD050C0057047FDF75C
:102C90007FBC000002400000000000A00000000017
:102CA00005400000000000C8000000000C400000CB
:102CB0000000409C00000000194000000020BCBE45
:102CC0000000000034400000BFC91B8E000000045B
:102CD000B5400000504BCFD06607E2CF01000000A6
:102CE0006C4100003E8251AADFEEA73401000000D3
:102CF000D9420000DCB5A0E23A301F97FFFFFFFF8A
:102D0000B4450000FD25A0C8E9A3C14FFFFFFFFFA8
:102D1000FF3F00000000008000000000FF3F0000B7
:102D20000000008000000000642D0008000000206A
:102D30004C0000006C010008B02D00084C00002081
:102D4000D4250000880100081C000000430000009A
:102D5000F8FFFFFF0C0000000E0000000F00000055
:102D60002E00000000A24A04000000000000000045
:102D7000010203040607080900000000000000002B
:102D80000000000000000000000000000000000043
:102D90000000000000000000000000000000010230
:102DA00003040102030406070809020406080000E0
:0400000508000131BD
:00000001FF
